:020000040800F2
:100000001805002049010008BD1B0008BF1B00089F
:10001000C11B0008C31B0008C51B0008000000002E
:10002000000000000000000000000000C71B0008E6
:10003000C91B000800000000CB1B0008CD1B0008F6
:10004000630100086301000863010008EB1B00085E
:1000500063010008630100086301000863010008F0
:1000600063010008630100086301000863010008E0
:1000700063010008630100086301000863010008D0
:1000800063010008630100086301000863010008C0
:1000900063010008630100086301000863010008B0
:1000A00063010008630100086301000863010008A0
:1000B0006301000863010008630100086301000890
:1000C0006301000863010008630100086301000880
:1000D0006301000863010008630100086301000870
:1000E0006301000863010008630100086301000860
:1000F0006301000863010008630100086301000850
:10010000630100086301000863010008630100083F
:10011000630100086301000863010008630100082F
:10012000630100086301000863010008630100081F
:10013000DFF810D002F07CFD00480047491B0008A2
:10014000AFF30080180500200648804706480047A6
:10015000FEE7FEE7FEE7FEE7FEE7FEE7FEE7FEE777
:10016000FEE7FEE715020008310100080CB5002289
:10017000019200925248016841F4803101604FF4CD
:10018000A063016801F4003100910199491C0191BB
:10019000009911B901999942F3D10168890302D5F7
:1001A0000121009100E000920099012930D14549D8
:1001B0000A6842F010020A600A6822F003020A602C
:1001C0000A6842F002020A60416841604168416089
:1001D000416841F480614160416821F47C114160D3
:1001E000416841F4E8114160016841F080710160AB
:1001F00001688901FCD5416821F003014160416833
:1002000041F0020141604168C1F381010229FAD144
:100210000CBDABE710B52A48016841F0010101604F
:100220004168294A114041600168284A1140016033
:10023000016821F480210160416821F4FE014160E0
:100240004FF41F018160FFF7E4FF21494FF0006088
:10025000086010BD10B51A4A506800F00C011D4B23
:100260001D4800290ED004290ED008290ED00360A5
:100270005168194AC1F30311121D515C0268CA404A
:10028000026010BD0360F3E70360F1E7516801F419
:100290007011536803F48033022404EB914133B1AD
:1002A00053689B0307D50D4B59430160E0E70B4BA7
:1002B00059430160DCE7074B59430160D8E7000070
:1002C00000100240002002400000FFF8FFFFF6FE91
:1002D00008ED00E000127A000000002000093D0057
:1002E0002A4908432A490860704770B50F23C2782D
:1002F00001260178002A1ED0254A126802F4E06225
:10030000C2F5E062120AC2F10404D3404578A54068
:1003100082781A402A43120101F1E02181F8002479
:10032000007800F01F018E404009800000F1E020BD
:10033000C0F8006170BD01F01F00864048098000D0
:1003400000F1E020C0F8806170BD124A1140014305
:100350000F48001F016070470D4A121D002903D08D
:100360001168014311607047116881431160704743
:100370004FF0E021042804D0086920F0040008614F
:100380007047086940F00400086170470000FA05F2
:100390000CED00E080FFFF1F10B5012000F03BFBDB
:1003A000BDE81040002000F036BB204908607047CF
:1003B0001E49091F086070471C4984310860704756
:1003C0001B4A118821F46071014311807047184A5B
:1003D000118821F07F0101431180704708B5144A4C
:1003E0002C3A104400900098016008BD08B51049EF
:1003F0002C39084400900098008808BD0B489C30B8
:100400000068C0B270470A480830018841F0010115
:10041000018070470548A0300068C0B270470448AA
:100420000830018841F002010180704704860D42C6
:100430002C6C004010B59C49884209D10121042050
:1004400000F0D3FA0021BDE81040042000F0CDBA3E
:100450009649884209D10121082000F0C6FA0021FE
:10046000BDE81040082000F0C0BA9149884209D187
:100470000121102000F0B9FA0021BDE81040102041
:1004800000F0B3BA8B49884209D10121202000F045
:10049000ACFA0021BDE81040202000F0A6BA864941
:1004A000884209D10121402000F09FFA0021BDE8D7
:1004B0001040402000F099BA8049884209D10121BA
:1004C000802000F092FA0021BDE81040802000F06A
:1004D0008CBA7B4988420AD184150121204600F05C
:1004E00084FA2046BDE81040002100F07EBA10BD1D
:1004F00010B50121084600F078FA0021BDE810404F
:10050000012000F072BA2DE9F0410022CC7804F00D
:100510000F03E40601D58C7823430C784FF00F07C6
:1005200014F0FF0F4FF0010C1CD005680CFA02F418
:100530000E882640A64211D1960007FA06F825EA51
:10054000080503FA06F848EA0505CE78282E02D0F9
:10055000482E02D002E0446100E00461521C082AE7
:10056000E4D305600A88FF2A1ED94568002202F1FB
:1005700008060CFA06F40E882640A64210D1960012
:1005800007FA06F825EA080503FA06F848EA050519
:10059000CE78282E00D14461CE78482E00D1046157
:1005A000521C082AE3D34560BDE8F0814FF6FF7185
:1005B0000180022181700421C17070470246002031
:1005C00092680A4200D001207047806880B270476C
:1005D00002460020D2680A4200D001207047C0685D
:1005E00080B270470161704741617047002A01D0B5
:1005F0000161704741617047C160704741F48032CA
:1006000082618161826181698069704710B52D4B7B
:100610001A684FF68074224042EA001008431860BE
:1006200010BD2949C8617047F0B5264C002801DA91
:10063000E36900E06368C0F30346420D120185B22E
:10064000C0F301579540032F07D0C2020CD50322F7
:10065000B240934343F0706209E023F07062636834
:1006600023F07063636002E0AB4343F0706201B15A
:100670002A43002801DAE261F0BD6260F0BD10B5E6
:100680008A07120F0F23934021F003040D492144E0
:100690008C689C438C608B68904003438B6010BDDA
:1006A0000949DC310860704700080140000C014036
:1006B000001001400014014000180140001C0140DE
:1006C00000200140000001400000204210B501213F
:1006D0000C07204600F094F92046BDE810400021A8
:1006E00000F08EB9214908627047204908617047BF
:1006F0001F4A116821F0E0010143116070471B4956
:10070000A031086070471A4B1A6822F003020243B6
:100710001A601848026842F004020260012905D0FC
:1007200020BF016821F004010160704730BFF8E785
:100730000F48016841F004010160016841F00201C5
:1007400001600C48016841F00401016030BF70474E
:1007500001460020064A52680A4200D00120704734
:1007600003490A6842EA80000860704700000E42B0
:100770000070004010ED00E0B448016841F0010154
:1007800001604168B24A114041600168B14A1140BC
:100790000160016821F480210160416821F4FE01BB
:1007A00041604FF41F0181607047A8490A6822F434
:1007B00080320A600A6822F480220A60B0F5803F25
:1007C00007D0B0F5802F03D1086840F4A02008605E
:1007D0007047086840F48030086070470346002086
:1007E00059099A4A01290AD002290AD0516A03F00C
:1007F0001F02012393400B4200D001207047116873
:10080000F5E7116AF3E718B5002000904FF4A064F3
:100810003120FFF7E3FF0099491C00910099A142A4
:1008200001D00028F4D03120FFF7D8FF08B1012013
:1008300018BD002018BD854A116821F0F80141EA71
:10084000C000106070478449086070477F4B5A6849
:1008500022F47C1208431043586070477E490866B2
:1008600070477A4A516821F0030101435160704793
:100870007648406800F00C007047744A516821F0D7
:10088000F001014351607047704A516821F4E06102
:100890000143516070476D4A516821F4605141EA4B
:1008A000C00050607047694A002903D0517A014363
:1008B00051727047517A8143517270476649D831FD
:1008C00008607047614A516821F44041014351601A
:1008D00070475E49002220310A7001F82029012862
:1008E00005D0042802D1052081F82000704701209E
:1008F00081F82000704759490860704753490A6AD7
:1009000002430A627047554944390860704710B580
:100910004E4A516801F00C01514B002927D004299F
:1009200027D0082927D00360516801F0F001090998
:100930004C4B5C5C0168E1404160546804F4E06445
:10094000240A1C5D21FA04F48460546804F46054A1
:10095000E40A1B5DD940C160526802F44042920B28
:10096000404B1B1F9A5CB1FBF2F1016110BD0360AB
:10097000DAE70360D8E7516801F47011536803F4B3
:100980008033022404EB914133B153689B0307D5B4
:10099000354B59430160C7E7334B59430160C3E707
:1009A0002F4B59430160BFE7284A002903D0516902
:1009B0000143516170475169814351617047234A36
:1009C000002903D091690143916170479169814386
:1009D000916170471D4A002903D0D1690143D1615B
:1009E0007047D1698143D1617047184A002903D00B
:1009F000D1680143D1607047D1688143D1607047AD
:100A0000124A002903D0116901431161704711692D
:100A100081431161704711494039086070470E49A0
:100A2000C86470470949C87170470848416A41F075
:100A300080714162704701460020044A92680A4270
:100A400000D00120704701498872704700100240B1
:100A50000000FFF8FFFFF6FE000042428004424221
:100A600000127A001800002000093D00434A0029C6
:100A700003D0118801431180704711888143118090
:100A800070473E48001D018841F010010180704709
:100A90003A48001D018821F0100101807047374855
:100AA0001C30008835491831098840EA01407047F8
:100AB00000B50246FFF7E5FF3049100C18310880F9
:100AC000081D02805DF804EBE2E700B50246FFF77F
:100AD000D8FF2A49C2F3034008310880081D02806C
:100AE0005DF804EBD4E700B50246FFF7CAFF2349DF
:100AF000100C20310880081D02805DF804EBC7E768
:100B00001E48103000880007010B1C481430008874
:100B1000084370471948001D01888906FCD57047B5
:100B20001648001D018821F008010180018809078D
:100B3000FCD5704701460020104A121D12880A4257
:100B400000D0012070470D49091D0A8882430A80A0
:100B500070470A49091D0988C2B21140074A128824
:100B6000024202D009B101207047002070470349BA
:100B7000091D0A8882430A8070470000002800404F
:100B800010B5FE4988420AD1C41401212046FFF75E
:100B90002CFF2046BDE810400021FFF726BFB0F132
:100BA000804F0CD0F649884213D101210220FFF773
:100BB00027FF0021BDE810400220FFF721BF0121DF
:100BC0000846FFF71DFF0021BDE810400120FFF798
:100BD00017BFEC49884209D101210420FFF710FF1B
:100BE0000021BDE810400420FFF70ABFE649884213
:100BF00009D101210820FFF703FF0021BDE81040C3
:100C00000820FFF7FDBEE149884209D101211020EB
:100C1000FFF7F6FE0021BDE810401020FFF7F0BE00
:100C2000DB49884209D101212020FFF7E9FE00219C
:100C3000BDE810402020FFF7E3BED64988420AD124
:100C4000441401212046FFF7D0FE2046BDE81040A5
:100C50000021FFF7CABED04988420AD10121CC0445
:100C60002046FFF7C2FE2046BDE810400021FFF7F6
:100C7000BCBECA4988420AD101210C052046FFF7B3
:100C8000B4FE2046BDE810400021FFF7AEBEC449C7
:100C900088420AD101214C052046FFF7A6FE2046D6
:100CA000BDE810400021FFF7A0BEBE49884209D12F
:100CB00001214020FFF7A4FE0021BDE810404020A4
:100CC000FFF79EBEB849884209D101218020FFF775
:100CD00097FE0021BDE810408020FFF791BEB34988
:100CE00088420AD1841501212046FFF789FE20465B
:100CF000BDE810400021FFF783BEAD4988420AD10C
:100D000001210C042046FFF770FE2046BDE810408C
:100D10000021FFF76ABEA74988420AD101214C048D
:100D20002046FFF762FE2046BDE810400021FFF795
:100D30005CBEA14988420AD101218C042046FFF7FC
:100D400054FE2046BDE810400021FFF74EBE10BD06
:100D500030B50288894C8F4DA0420DD0A8420BD0EF
:100D6000B0F1804F08D0864B984205D0854B984211
:100D700002D0854B984203D122F070034A881A436F
:100D8000824B984206D0824B984203D022F44073A3
:100D9000CA881A4302808A8882850A880285A0420E
:100DA0000AD0A84208D0824A904205D0814A904297
:100DB00002D0814A904201D1097A018601218182C3
:100DC00030BD30B5028C22F001020284028C83888F
:100DD000048B24F0700424F003050C882C4322F0CB
:100DE00002020D8915434A882A43644DA8420BD05C
:100DF000684DA84208D06E4DA84205D06D4DA8425E
:100E000002D06D4DA8420FD122F008054A892A432D
:100E100022F004058A882A4323F4807323F40073A4
:100E20008D891D43CB892B4383800483C9888186A8
:100E3000028430BD70B5028C22F010020284028C54
:100E40008388048B24F4E04424F440760D884FF624
:100E5000FF7404EA0525354322F020020E8904EAD6
:100E6000061616434A8804EA02123243434EB04241
:100E700002D0484EB04217D122F080024E8904EAD7
:100E80000616164326F040068A8804EA0212324308
:100E900023F4806323F400638E8904EA86061E43EC
:100EA000CB8904EA8303334383800583C9880187A0
:100EB000028470BD70B5028C22F480720284028CB0
:100EC0008388848B24F0700424F003040D88254368
:100ED00022F400720E894FF6FF7404EA06261643C8
:100EE0004A8804EA02223243244EB04202D0294EFC
:100EF000B04217D122F400664A8904EA0222324342
:100F000022F480668A8804EA0222324323F4805362
:100F100023F400538E8904EA06161E43CB8904EAA3
:100F20000313334383808583C9888187028470BD1E
:100F300070B5028C22F480520284058C8288838BE7
:100F400023F4E04323F440760C884FF6FF7303EA62
:100F50000424344325F400550E8903EA06362E4353
:100F60004D8803EA05353543044EB04202D0094EA0
:100F7000B04226D122F480468A891FE0002C01402D
:100F80000004004000080040000C00400010004039
:100F90000014004000340140004C0140005001406A
:100FA0000054014000180040001C00400020004098
:100FB00000400140004401400048014003EA821221
:100FC000324382808483C988A0F84010058470BDB4
:100FD000828B22F440628283828B4FF6FF7303EA96
:100FE00001210A4382837047F0B5048C24F48054B5
:100FF0000484868B048C4FF6FF7505EA013726F4CE
:10100000734605EA0222324305EA03331343F74AE3
:1010100090420ED0F64A90420BD0B0F1804F08D0EB
:10102000F44A904205D0F44A904202D0F34A9042EA
:1010300005D124F40051394341F4805104E024F4F3
:1010400002420A4342F4805183830184F0BD828BC3
:1010500022F00C028283828B0A4382837047F0B5B0
:10106000048C24F480740484858B048C4FF6FF7701
:1010700007EA012625F0F30507EA031313432B4380
:10108000DA4A90420ED0DA4A90420BD0B0F1804F4B
:1010900008D0D84A904205D0D74A904202D0D74AC9
:1010A000904205D124F40071314341F4807104E091
:1010B00024F420620A4342F4807183830184F0BDEA
:1010C000028B22F440620283028B4FF6FF7303EA25
:1010D00001210A4302837047F0B5048C24F0100408
:1010E0000484068B048C4FF6FF7505EA011726F47D
:1010F000734605EA0333334305EA02221A43BB4B26
:1011000098420ED0BA4B98420BD0B0F1804F08D025
:10111000B84B984205D0B84B984202D0B74B984292
:1011200005D124F02001394341F0100104E024F0FE
:10113000A0030B4343F0100102830184F0BD028B36
:1011400022F00C020283028B0A430283704770B5BF
:10115000048C24F001040484058B048C25F0F30531
:101160004FF6FF7606EA031313432B439F4A904240
:101170000ED09F4A90420BD0B0F1804F08D09D4ACC
:10118000904205D09C4A904202D09C4A904205D1A0
:1011900024F002020A4342F0010104E024F00A02B2
:1011A0000A4342F001010383018470BD70B5054616
:1011B0000C468E48854209D08D48854206D0B5F14F
:1011C000804F03D08B48854200D08B4820886188AF
:1011D000A288238958B1042811D0082817D028469E
:1011E000FFF702FFE1882846BDE87040F0E6284698
:1011F000FFF7ADFFE1882846BDE870409FE728462D
:10120000FFF76AFFE1882846BDE8704058E72846A6
:10121000FFF725FFE1882846BDE8704017E72DE974
:10122000F04107460C46002501266188002900D1BF
:101230000225A288012A00D102262088238988B1AC
:101240003846FFF749FFE1883846FFF739FF238921
:10125000324629463846FFF77AFFE1883846BDE82E
:10126000F0416CE73846FFF772FFE1883846FFF738
:1012700066FF2389324629463846FFF72DFFE1886D
:101280003846BDE8F0411BE710B50A884B88CC888A
:101290001A438B8823431A430B891A434B89898944
:1012A0001A430A43A0F8442010BD4FF6FF71818015
:1012B00000210180C18041800172704700210180BE
:1012C00041808180C180018141818181C1817047DC
:1012D00000210180418001228280C180018170470C
:1012E0000021018041808180C18001814181818113
:1012F0007047002904D0018841F001010180704746
:10130000018821F0010101807047002905D030F8E3
:10131000441F41F400410180704730F8441FC1F37D
:101320000E0101807047002A03D082890A4382811E
:10133000704782898A438281704781827047114356
:10134000A0F848107047002A03D082890A4382819E
:10135000704782898A4382817047018921F00701A1
:1013600001817047028922F070020A4302817047AE
:1013700000B503461846FFF7F5FF188940F007004F
:10138000188100BD70B50D4604461146602D0CD085
:1013900001222046FFF7DBFE29462046FFF7E2FF49
:1013A000208940F00700208170BD01222046FFF710
:1013B00093FEF1E730B50489E4B24FF6FF7505EA14
:1013C000032313430B432343038130BD10B504466D
:1013D0002046FFF7EFFF208920F0070040F00700CC
:1013E00020F0700040F07000208110BD002C014002
:1013F000003401400004004000080040000C0040A0
:1014000010B504462046FFF7D5FF208940F4804000
:101410002081EAE7018582827047028822F070020B
:101420000A430280704770B50589048B068C25F04D
:1014300007050D434FF6FC410C4040F201110C43EF
:1014400026F022064FF6FF7101EA031111433143E2
:1014500005810483018470BD028B22F070020A436F
:1014600002837047028B22F4E0424FF6FF7303EAD7
:101470000121114301837047828B22F070020A43DD
:1014800082837047828B22F4E0424FF6FF7303EAB7
:101490000121114381837047002904D0018841F064
:1014A000800101807047018821F080010180704730
:1014B000002904D0818841F004018180704781882F
:1014C00021F0040181807047002904D0818841F017
:1014D000080181807047818821F008018180704770
:1014E000002904D0818841F0010181807047818802
:1014F00021F0010181807047028B22F008020A432B
:1015000002837047028B22F400624FF6FF7303EAF6
:101510000121114301837047828B22F008020A43A4
:1015200082837047828B22F400624FF6FF7303EAD6
:101530000121114381837047028B22F004020A4388
:1015400002837047028B22F480624FF6FF7303EA36
:101550000121114301837047828B22F004020A4368
:1015600082837047828B22F480624FF6FF7303EA16
:101570000121114381837047028B22F080020A43CC
:1015800002837047028BC2F30E024FF6FF7303EA29
:101590000121114301837047828B22F080020A43AC
:1015A00082837047828BC2F30E024FF6FF7303EA09
:1015B0000121114381837047028C22F002020A4309
:1015C00002847047028C22F008020A4302847047AA
:1015D000028C22F020024FF6FF7303EA011111433F
:1015E00001847047028C22F080024FF6FF7303EAF9
:1015F0000111114301847047028C22F400724FF6EE
:10160000FF7303EA0121114301847047028C22F425
:1016100000624FF6FF7303EA012111430184704712
:10162000028C22F400524FF6FF7303EA013111439A
:101630000184704710B501238B40048C9C430484C3
:10164000038C8A4013430384CFE610B504238B40F8
:10165000048C9C430484038C8A4013430384C4E6B3
:1016600030B500F1180301248C40058CA543058496
:10167000002911D008290FD0091FC1F34E001844CA
:10168000016821F4E041016001684FF6FF7303EA4D
:1016900002221143016030BD03EB5100016821F0CB
:1016A0007001016001681143016030BD002904D060
:1016B000018841F0020101807047018821F0020198
:1016C00001807047002904D0018841F004010180A5
:1016D0007047018821F0040101807047002904D07F
:1016E000818841F0800181807047818821F08001EC
:1016F00081807047028822F00802028002880A4333
:1017000002807047828822F07002828082880A43B9
:1017100082807047028922F00702028102890A430F
:1017200002817047028922F08002028102890A4305
:101730000281704781847047818570478186704738
:101740000187704781877047A0F840107047028872
:1017500022F44072028002880A4302807047808E21
:101760007047008F7047808F7047B0F84000704717
:10177000808C7047008D704702460020128A0A4212
:1017800000D001207047C943018270470246002003
:10179000138A0B4092890A40002B02D0002A00D005
:1017A00001207047C94301827047000010B5E1492C
:1017B00088420AD101218C032046FFF716F9204602
:1017C000BDE810400021FFF710B9DB4988420AD17B
:1017D00001214C042046FFF713F92046BDE81040D4
:1017E0000021FFF70DB9D54988420AD101218C04A7
:1017F0002046FFF705F92046BDE810400021FFF71D
:10180000FFB8CF4988420AD10121CC042046FFF716
:10181000F7F82046BDE810400021FFF7F1B8C949AC
:1018200088420AD101210C052046FFF7E9F820463D
:10183000BDE810400021FFF7E3B810BD30B585B01A
:1018400004460D46208A4CF6FF710840E9880143A2
:101850002182A0894EF6F3110840A9882A891143F4
:101860006A8902431143A181A08A4FF6FF410840D3
:10187000A9890143A1826846FFF749F8AD4884422F
:1018800001D1039800E00298A189090408D500EB72
:10189000C00101EB001029684900B0FBF1F007E03E
:1018A00000EBC00101EB001029688900B0FBF1F0EA
:1018B0006422B0FBF2F109010B096FF018056B43CC
:1018C00000EB8300A3891D044FF0320307D503EB1F
:1018D000C000B0FBF2F000F00700084306E003EBA5
:1018E0000010B0FBF2F000F00F000843208105B0BB
:1018F00030BD4FF41651016000218180C18001810B
:101900000C2242818181704710B5038A4FF2FF0299
:1019100013400A884C8822438C88C9880C43224390
:101920001A43028210BD0021018041808180C18064
:101930007047002904D0818941F4005181817047AA
:10194000818921F400518181704710B540F66A13F6
:10195000C1F3421301F01F040121A140012B07D064
:10196000022B07D014303AB102680A43026010BD5E
:101970000C30F8E71030F6E702688A43026010BDC9
:10198000002A03D0828A0A4382827047828A8A436D
:1019900082827047028A22F00F020282028A0A4380
:1019A00002827047828922F40062828182890A431E
:1019B00082817047002904D0818941F00201818130
:1019C0007047818921F0020181817047028A22F0EB
:1019D00020020282028A0A4302827047002904D050
:1019E000018A41F4804101827047018A21F48041DB
:1019F00001827047C1F30801818070478088C0F37D
:101A000008007047818941F0010181817047028B94
:101A1000D2B20283028B42EA012101837047028B1A
:101A200002F47F420283028B0A430283704700293B
:101A300004D0818A41F0200181827047818A21F09F
:101A4000200181827047002904D0818A41F0100171
:101A500081827047818A21F01001818270470029BC
:101A600004D0818A41F0080181827047818A21F087
:101A7000080181827047002904D0818941F4004126
:101A8000818170478189C1F30E01818170470029EE
:101A900004D0818A41F4006181827047818A21F4F7
:101AA000006181827047828A22F004028282828AE7
:101AB0000A4382827047002904D0818A41F00201E2
:101AC00081827047818A21F002018182704702463B
:101AD000002012880A4200D0012070478A05C943BD
:101AE0000180704770B5002440F66A12C1F34213BA
:101AF00001F01F05012606FA05F2012B0CD0022B7E
:101B00000DD0838A1340090A8E40008830400BB103
:101B100000B10124204670BD83891340F3E7038A96
:101B20001340F0E740F66A120A0A01219140C943C6
:101B300001807047003801400044004000480040E8
:101B4000004C00400050004000F00EFB00F0E9FAAD
:101B500000F026FC00F04CFB00F068F800F094F96F
:101B600000F05EFC124800F0ACFC124801218171CB
:101B7000002505720E4C104E083C20780A28FCD334
:101B800025706078401C60703068012806D1FEF72F
:101B900086FF6060064900F0D1FC356000F0AAFBCA
:101BA00060781928E9D3657000F028FCE5E70000AB
:101BB000300000200C0100207C0000207047FEE770
:101BC000FEE7FEE7FEE77047704770471349087865
:101BD000401C087012490888401C80B20880B0F58B
:101BE0007A7F01D900200880704710B50120FEF7E8
:101BF000B0FF012430B10120FEF7B9FF09480460AD
:101C0000FEF788FF0220FEF7A4FF08B10648046033
:101C1000BDE810400320FEF7AABF00002800002006
:101C20004C0000207C000020CC00002010B586B0C5
:101C300001210420FEF7C3FE01218803FEF7BFFE49
:101C40004FF40070ADF8140018208DF81700032031
:101C50008DF816004C4C05A92046FEF754FC2115C2
:101C6000ADF8141004218DF8171005A92046FEF7D1
:101C70004AFC4FF4E13001900020ADF80800ADF8C7
:101C80000A00ADF80C00ADF810000C20ADF80E0005
:101C90003E4C01A92046FFF7D1FD012240F225511B
:101CA0002046FFF752FE01212046FFF742FE06B014
:101CB00010BD10B504462046FFF79CFE802120464B
:101CC000FFF705FF0028F9D010BD2DE9F0410746C8
:101CD0000D461646002405E0295D3846FFF7E9FF6A
:101CE000641CE4B2B442F7D340213846FFF7EFFE5C
:101CF0000028F9D0BDE8F08170B506460D460024F5
:101D00003046295DFFF7D5FF641C285D0028F7D118
:101D100040213046FFF7DBFE0028F9D070BD70B5DA
:101D20000546080ACCB201462846FFF763FE80212B
:101D30002846FFF7CCFE0028F9D021462846FFF7B9
:101D400059FE80212846FFF7C2FE0028F9D070BD59
:101D500070B504460D4DE1B22846FFF74BFE8021D9
:101D60002846FFF7B4FE0028F9D0204670BD10B514
:101D7000064C20212046FFF7AAFE0028F9D0204675
:101D8000BDE81040FFF73ABE0008014000380140AE
:101D9000002808D000BF00BF00BF00BF00BF00BFC9
:101DA000401E0028F6D1704710B5B74C02212046DE
:101DB000FEF71AFC0320FFF7EBFF04212046FEF795
:101DC00013FC02212046FEF70DFC0320FFF7E0FF85
:101DD0002046BDE810400421FEF704BC10B5AA4C13
:101DE00002212046FEF700FC0520FFF7D1FF042169
:101DF0002046FEF7E3FB0028FDD102212046FEF736
:101E0000F1FB0220FFF7C4FF2046BDE8104002218D
:101E1000FEF7EABB70B5054600249B4E0221304612
:101E2000FEF7E2FBE80704D004213046FEF7DAFBB8
:101E300003E004213046FEF7D7FB0320FFF7A8FF9D
:101E40006D0802213046FEF7CDFB0320FFF7A0FF0F
:101E5000641CE4B2082CE1D370BD10B58A4C022199
:101E60002046FEF7BFFB04212046FEF7BBFB042102
:101E70002046FEF7B9FB0320FFF78AFF2046BDE8A6
:101E800010400221FEF7B0BBF8B501210820FEF793
:101E900096FD0220ADF8000010258DF803500324B4
:101EA0008DF80240784E69463046FEF72CFB04213F
:101EB000ADF800108DF803508DF8024069463046A9
:101EC000FEF721FBFFF7C9FF8020FFF7A3FFFFF715
:101ED00085FFFFF769FFF8BD70B505466B4AC12D58
:101EE00001D0545C05E06A48037A1BB300230372F7
:101EF000545CFFF7B2FF4420FFF78CFFFFF76EFF43
:101F0000FFF752FFFFF7A9FF2846FFF783FFFFF710
:101F100065FF2046FFF77EFFFFF760FFFFF744FFF6
:101F2000FFF79BFF8B20FFF775FFFFF757FFBDE81B
:101F3000704039E70122027254481B30445CD8E7F4
:101F400010B5FFF78AFF4420FFF764FFFFF746FF55
:101F5000FFF72AFFFFF781FFC020FFF75BFFFFF7C6
:101F60003DFFFFF721FF0021C020FFF7B5FF112142
:101F7000C120FFF7B1FF0221C220FFF7ADFF04210E
:101F8000BDE81040C320A7E72DE9F041027A0079AF
:101F90000A23B2FBF3F4B2FBF3F103FB1125B0FB10
:101FA000F3F6B0FBF3F103FB1108FFF756FF4420F3
:101FB000FFF730FFFFF712FFFFF7F6FEFFF74DFFC9
:101FC000C020FFF727FFFFF709FFFFF7EDFE304FB7
:101FD000B879B0B12F48007801281CD0022835D03C
:101FE0002146C020FFF778FF2946C120FFF774FF84
:101FF0003146C220FFF770FF4146BDE8F041C320E3
:102000006AE7FFF72AFF8020FFF704FFFFF7E6FEED
:10201000BDE8F041C8E62146C020FFF75DFF294634
:10202000C120FFF759FFF87938B11A21C020FFF716
:1020300053FF0A21C120FFF74FFF3146C220FFF7AF
:102040004BFF4146BDE8F041C32045E72146C02093
:10205000FFF742FF2946C120FFF73EFF3146C2206D
:10206000FFF73AFF4146C320FFF736FFF879002813
:1020700008D01A21C220FFF72FFFBDE8F0411A2136
:10208000C32029E7BDE8F081000C014004320008BC
:102090000C0100205100002008B501210820FEF7A6
:1020A0008EFC4FF48070ADF8000018208DF803000E
:1020B00003208DF8020069461F48FEF724FA08BD88
:1020C00070B588B006460C46154601210420FEF77F
:1020D00081FCADF81840ADF814500024ADF81A405A
:1020E000ADF816408DF81C40144D05A92846FEF7A2
:1020F0002FFE6020ADF804000120ADF80600ADF819
:102100000C40ADF80A6001A92846FEF7D3FE08216D
:102110002846FFF701FA01212846FFF7EAF808B040
:1021200070BD10B5FFF7B8FF6321BDE8104040F265
:1021300067120020C4E70000000C014000080040C6
:10214000B0F1807F01D30120704720F07F414FF034
:10215000E020491E4161234AF02111700021816174
:10216000072101610020704710B51F484FF47A71B4
:102170000068B0FBF1F0FFF7E3FF002800D0FEE7B6
:1021800010BD01B5184819490068B0FBF1F0FFF720
:10219000D7FF00204FF0E02103E00A69D203FCD50D
:1021A000401C009A9042F8D3086920F001000861B1
:1021B00008BD01B50C484FF47A710068B0FBF1F02E
:1021C000FFF7BEFF00204FF0E02103E00A69D203D1
:1021D000FCD5401C009A9042F8D3086920F0010019
:1021E000086108BD23ED00E00000002040420F0020
:1021F00038B501211420FEF7E2FB0120ADF8000004
:1022000048248DF80340634D69462846FEF77BF964
:102210002021ADF800108DF8034069462846FEF7EE
:1022200072F938BD2DE9F047DFF868910121484681
:10223000FEF7C4F901260027574C584D4FF4967805
:10224000012802D0A87838B114E0AF70EF80207870
:1022500080B127702E700DE0E888401C81B2E980C3
:10226000022900D92670414504D92770EF80AE704D
:102270001020287020214846FEF7A0F9012802D03E
:10228000E87840B115E0EF702F81607888B1677011
:10229000022028700DE02889401C81B22981022982
:1022A00000D96670414504D967702F81EE702020F7
:1022B000287001214846FEF781F9012808D0202125
:1022C0004846FEF77BF9012802D0287940B10EE09C
:1022D0002F716F81A07850B103202870A77006E09D
:1022E0006889401C80B26881022800D9A6702878CD
:1022F000BDE8F08710B5FFF795FF26490C3103289C
:1023000008D008DC01280ED0022803D1086880F02C
:102310000400086010BD0023204A102816D0202891
:10232000F8D1137010BD086880F0020008601B48E7
:102330000C3000F033F919480C3000F0B1F8BDE86A
:1023400010404AF2A5510420FEF748B8086880F012
:10235000080008605078401CC0B25070032800D9B3
:102360005370137010BD10B50B480179002910D0BF
:102370000021017109480C3000F010F907480C30B9
:1023800000F08EF8BDE810404AF2A5510420FEF797
:1023900025B810BD000801400C01002050000020AD
:1023A00038B501210420FEF70AFB1E20ADF800001D
:1023B00010208DF8030003208DF802000E4C6946B2
:1023C0002046FEF7A0F869462046FEF79CF86946CD
:1023D0002046FEF798F869462046FEF794F806482E
:1023E0004FF4003110300160490001604900016084
:1023F0004900016038BD0000000801400649087826
:10240000401CC0B20870054B0022DA71022802D9C4
:102410000A700120D8717047780000200C0100205C
:1024200008B54FF4C060FDF75BFF03208DF8000096
:1024300001208DF8010000218DF802108DF80300B5
:102440006846FDF752FF08BD10B501214FF0C0509E
:10245000FEF7C0FA0120FEF745F9FDF79DFF0120C8
:10246000FEF737FA4120FEF7B9F90028FAD04FF409
:102470008070FEF743FA0120FEF745FAFEF750FBA5
:10248000FEF748FB01210320FEF7F0FAFEF742FBBE
:1024900047F6FF70FEF719FBBDE81040FEF73ABBA8
:1024A00010B50446FFF7D0FFFEF734FB204600F0DE
:1024B0003CFAA0F5E140FEF7FBFABDE81040FEF75C
:1024C00029BB70B505460420FDF790FF4AF2A554DC
:1024D000A0420DD08AA000F099FD91A000F096FDD9
:1024E0002846FFF7DDFF21460420FDF777FF21E0B6
:1024F00001214FF0C050FEF76DFA0120FEF7F2F80F
:102500007B20FEF76BF918B18BA000F07FFD06E091
:102510007A20FEF763F910B190A000F077FD98A043
:1025200000F074FDFEF7FCFA01210320FEF79EFA8D
:10253000FEF7F0FABDE87040FEF777BAF0B587B065
:1025400005460C4605F5E140214600F027FA626990
:102550000C201146D21E92FBF0F300FB1320904A90
:10256000DFF83CC2A76952F82030ACF11C0C94E8AB
:1025700045005CF82770CDE90276CDE90420D4E966
:102580000320CDE900020A462946864800F03EFDB8
:1025900007B02046BDE8F040FFF7F6BC38B504466A
:1025A00000200090002580A000F030FD8C4800F055
:1025B0002DFD69468BA000F057FA0099A1F2B27088
:1025C000452803D388A000F021FDEFE78FA00099F4
:1025D00000F01CFD00986061924800F017FD69460C
:1025E00080A000F041FA0099481E0C2803D37EA079
:1025F00000F00CFDF0E78CA0009900F007FD0098BA
:1026000020610D281AD2DFE800F019070B0709072F
:1026100009070709070907001F250FE01E250DE020
:102620006069810709D1642190FBF1F201FB12017D
:1026300019B94FF4C87190FBF1F21C252946804866
:1026400000F0E4FC694667A000F00EFA009909B1B9
:10265000A94203D964A000F0D9FCEFE779A0009962
:1026600000F0D4FC0098E0607C4800F0CFFC6946A4
:102670005CA000F0F9F90099172903D95AA000F0DD
:10268000C5FCF1E776A0009900F0C0FC0098A060BE
:10269000794800F0BBFC694652A000F0E5F90099CA
:1026A0003B2903D950A000F0B1FCF1E773A00099D9
:1026B00000F0ACFC00986060764800F0A7FC69462A
:1026C00048A000F0D1F900993B2903D946A000F0B9
:1026D0009DFCF1E770A0009900F098FC0098206044
:1026E00038BD06462E4C203C002505E0FEF7D7F904
:1026F0003146FFF723FF256020680128FCD1F5E76C
:102700000D0A0D0A20525443206E6F7420796574AF
:1027100020636F6E666967757265642E2E2E2E00BB
:102720000D0A0D0A2052544320636F6E6669677567
:102730007265642E2E2E2E000D0A0D0A20506F7722
:102740006572204F6E205265736574206F636375E8
:10275000727265642E2E2E2E000000000D0A0D0AE6
:102760002045787465726E616C20526573657420C3
:102770006F636375727265642E2E2E2E000000004A
:102780000D0A204E6F206E65656420746F20636FA4
:102790006E666967757265205254432E2E2E2E0088
:1027A0009C0000209C3200080D0A3D3D3D3D3D3D12
:1027B0003D3D3D3D3D3D3D3D3D3D3D3D3D3D3D3D49
:1027C0003D3D3DC9E8D6C3CAB1BCE43D3D3D3D3DBC
:1027D0003D3D3D3D3D3D3D3D3D3D3D3D3D000000E0
:1027E00074330008256400000D0A20C4FACAE4C846
:1027F000EBB5C4CAFDD7D6CAC73A2564A3ACB2BBF1
:10280000B7FBBACFD2AAC7F3000000000A0D202000
:10281000C4EAB7DDB1BBC9E8D6C3CEAA3A20256465
:102820000A0D0000EC3200080A0D2020D4C2B7DDEA
:10283000B1BBC9E8D6C3CEAA3A2025640A0D000070
:10284000443400080A0D2020C8D5C6DAB1BBC9E857
:10285000D6C3CEAA3A2025640A0D00003033000802
:102860000A0D2020CAB1D6D3B1BBC9E8D6C3CEAABF
:102870003A2025640A0D0000003400080A0D2020CB
:10288000B7D6D6D3B1BBC9E8D6C3CEAA3A20256401
:102890000A0D0000BC3300080A0D2020C3EBD6D37C
:1028A000B1BBC9E8D6C3CEAA3A2025640A0D000000
:1028B00070B58CB0044630225E49684600F0C2F81C
:1028C00060690246411E642391FBF3F5CE1701EBCC
:1028D0009670C5EBA0009D0091FBF5F606449007AD
:1028E0000ED192FBF3F003FB102020B992FBF5F020
:1028F00005FB102020B92069022801DD012000E03D
:1029000000202269E368521E5DF822201A4440F23A
:102910006D1301FB036111440844072190FBF1F2A0
:1029200001FB1200A0610CB070BD30B50169891EB9
:102930000161002904DC0C3101614169491E4161DA
:102940004169642291FBF2F2CB1701EB9373C2EB66
:10295000A302C36840F26F1513444FF4C87291FB91
:10296000F2F402696A430C2592FBF5F222441A4400
:1029700040F26D1301FB03212F4A1144826801EBE1
:10298000410102EBC1014268C1EB011102EB81017F
:102990000068C1EB011100EB810030BD30B403468B
:1029A00008462649B3FBF1F2B3FBF1F401FB143105
:1029B0004FF4616391FBF3F4846091FBF3F403FB48
:1029C00014153C2495FBF4F5456091FBF3F503FBEE
:1029D000151191FBF4F304FB1311016040F2B27383
:1029E0004FF4B774651E04E099070CD02946521ABB
:1029F0005B1C990709D029469142F5DD4361104CD3
:102A0000990704D005E02146F1E72146F4E71D21AE
:102A10006160012301E0521A5B1C591E54F8211019
:102A20009142F8DD1C2161600361521CC26030BC20
:102A30003EE700002C3200087505F5FF80510100CB
:102A4000D000002040EA01039B0703D009E008C939
:102A5000121F08C0042AFAD203E011F8013B00F863
:102A6000013B521EF9D270470FB400B589B00BA8D4
:102A700000906A4603480A9900F0D0F809B05DF862
:102A800014FB0000000100202DE9FF5F1D464FF000
:102A9000FF3BD5E9014691465F464FF00008A96922
:102AA0007F1C01988847296A824688470028F6D10A
:102AB000BAF1FF3F0CD024F4C064002E19DD60068B
:102AC00014D5BAF12B0F09D0BAF12D0F0ED103E0B6
:102AD000584604B0BDE8F09F44F48064A9697F1CA7
:102AE00001988847761E8246002E02DDBAF1300F2B
:102AF00003D0B9F1000F26D032E0A969761E44F464
:102B000000747F1C019888478246002E05DDBAF1CB
:102B1000780F06D0BAF1580F03D0B9F1000F10D0DA
:102B20001EE0B9F1000F02D0B9F1100F18D1A96958
:102B3000761E24F400747F1C01988847824610207A
:102B400002E0082000E00A20814609E008FB0908AD
:102B5000A969761E44F400747F1C01988847824658
:102B6000002E05DD4946504600F04AF80028EDDA0F
:102B7000E96901988847A00502D46FF00100A8E731
:102B8000E00725D1600613D5600502D5C8F1000025
:102B900000E0404629680A1D2A600968220501D51F
:102BA000087015E0220701D5088011E008600FE0E9
:102BB0002868011D29600068210502D580F8008081
:102BC00006E0210702D5A0F8008001E0C0F80080EF
:102BD00038467EE730B50B4601460020202201240E
:102BE00009E021FA02F59D4205D303FA02F5491BDB
:102BF00004FA02F52844151EA2F10102F1DC30BDF1
:102C00003A2800D2303820F02002412A01D3A2F124
:102C10003700884201D34FF0FF307047024B936179
:102C2000024BD36100F032B86F1D0008712C000810
:102C3000064C074D06E0E06840F0010394E8070009
:102C400098471034AC42F6D3FDF776FAD434000836
:102C5000F4340008094910B508784C1C18B1401E1E
:102C60000870205C10BD00210720ABBE207010BD95
:102C700002490878421C0A707047000008010020D1
:102C8000026811441378016018467047D160044906
:102C900051610449116200211161114600F00AB826
:102CA000812C0008A92C0008C0B24FF4F05100F0AC
:102CB00099B900002DE9F34F8BB04FF0000801F1F6
:102CC0000C000C464FF0010B46460DF1080A01902E
:102CD0006269012101989047051E2DD0252D2CD029
:102CE000216A8847C0B16269012101989047216A31
:102CF00088470028F7D1411E62690198904700E09B
:102D0000761CA1690B988847216A88470028F7D16B
:102D1000E1690B988847DBE7A1690B98884707466C
:102D2000A84201D1761CD3E7E1690B9888477F1C44
:102D300002D1B8F1000F6FD047E1002762693D462C
:102D40003946019890472A2804D1626901210198E7
:102D500090470125DFF88892626901210198904728
:102D6000A0F130010A290AD24F45E5DC07EB8701C3
:102D700000EB4107303FDFD445F01005ECE7E906F2
:102D800001D46FF000476C280AD04C2814D0682872
:102D900015D06A280DD074281CD07A281AD01DE0CE
:102DA00062690121019890476C2802D045F0040522
:102DB00014E045F002050DE045F020050AE06269E7
:102DC000012101989047682802D045F0080505E0E8
:102DD00045F400656269012101989047C4E90157F3
:102DE00065283DD019DC58287AD00CDC452837D02E
:102DF00004DC252826D0412831D131E046282FD0C7
:102E000047282CD12CE05B2877D0612828D0632874
:102E10007CD0642823D15AE0D1E06F2848D008DC68
:102E200066281DD067281BD0692821D06E2816D1AE
:102E300027E0702845D0732868D0752847D07828B7
:102E40000DD14DE0A1690B988847054625283FF430
:102E500069AFE1690B9888476D1C3FF46AAFB4E035
:102E600023466A466FF001000B99AFF300809FE0A4
:102E700045F040006060A80723464FF0000236D4BA
:102E80003EE0E8077FF447AF2068011D216000683D
:102E9000290501D506701BE7290701D5068017E72C
:102EA000A90703D5F117C0E9006111E706600FE734
:102EB00045F040006060A80723464FF0080216D492
:102EC0001EE040F60E0125EA0100606016E045F0C4
:102ED00040006060A80723464FF00A0207D40FE0C5
:102EE00045F040006060A80708D5234610226FF027
:102EF00001000B99AFF300805AE007E0234610224F
:102F00006FF001000B99FFF7BFFD51E04FF0000992
:102F10004F464B46632802D05B2807D041E020791A
:102F2000C00601D40120A06001273AE062690121B6
:102F3000019890475E2805D14FF001096269494622
:102F400001989047216939B900210A46534643F850
:102F50002120491C0829FADBB0B3216969B9C117DE
:102F600000EBD16253110AEB830122F01F02821A97
:102F700001200B68904003430B60626901210198B6
:102F800090475D28E8D1B9F1000F09D000205146E3
:102F900051F82020D24341F82020401C0828F7DBBC
:102FA00002AB224600976FF001000B99AFF300804F
:102FB00000280CDA401C08D1BBF1000F05D04FF0FF
:102FC000FF300DB0BDE8F08FFFE74046F9E7E907B5
:102FD00001D108F1010806444FF0000B78E600002B
:102FE000CCCCCC0C7F2801D9002208E0064A02EBA9
:102FF0005002C007127800D1120902F00F0201201E
:1030000090400840704700005C3200080FB4054B48
:1030100010B503A9044A029800F018F810BC5DF836
:1030200014FB0000511D00080401002002E008C844
:10303000121F08C1002AFAD170477047002001E032
:1030400001C1121F002AFBD1704700002DE9FF4F7C
:103050008BB09A460F460546002606E025280BD081
:1030600052460D9990476D1C761C28780028F5D1A2
:103070000FB03046BDE8F08F0024A0460122604921
:1030800000E0044315F8013F203B02FA03F0084238
:10309000F7D128782E2817D115F8010F44F0040431
:1030A0002A280ED06FF02F022878A0F130010929CC
:1030B0000AD808EB880102EB410100EB01086D1C06
:1030C000F2E757F8048B6D1C287869283ED006DC9F
:1030D0000028CDD063280BD0642804D136E07328B3
:1030E00010D075284BD052460D999047761C85E03C
:1030F00017F8040B8DF8000000208DF80100E94658
:10310000012003E057F8049B4FF0FF3061074FF0B8
:10311000000401D40AE0641C44450DDA8442FADB61
:1031200019F804100029F6D106E0641C8442FCDB87
:1031300019F804100029F8D1264404E019F8010B0D
:1031400052460D999047641EF8D257E001CF4FF0D8
:103150000A0B002802DA40422D2102E0210504D5A5
:103160002B218DF82410012103E0E10705D0202157
:10317000F7E70DF1200908910CE00021F9E701CFF4
:103180004FF00A0BF9E75946FFF724FD01F1300231
:1031900009F8012D0028F6D1ADEB090000F1200B54
:1031A000600701D44FF00108D84502DDA8EB0B0001
:1031B00000E000208046002406E009A85246005D99
:1031C0000D999047641C761C08988442F5DB04E056
:1031D000302052460D999047761CB8F10001A8F1B5
:1031E0000108F5DC05E019F8010B52460D999047EE
:1031F000761CBBF10001ABF1010BF4DC6D1C34E774
:10320000092801003F065B4F666D7D077F6F777C65
:10321000395E7971BF86DBCFE6EDFD87FFEF00BF3A
:1032200086DBCFE6EDFD87FFEF0000000000000029
:103230001F0000003B0000005A0000007800000062
:1032400097000000B5000000D4000000F30000006B
:1032500011010000300100004E010000DDDDDDDD68
:10326000DCBBBBDDDDDDDDDDDDDDDDDD9888888817
:1032700088888888777777777788888885555556BE
:103280006666666666666666666888888333333215
:1032900022222222222222222228888D20554E49B3
:1032A00058CAB1BCE4B4C1203D20256420B5B1C7E3
:1032B000B0CAB1BCE4CEAA3A202564C4EA2825737A
:1032C000C4EA29202564D4C2202564C8D52028D08A
:1032D000C7C6DA257329202025302E32643A2530DE
:1032E0002E32643A25302E32640D00000D0A202063
:1032F000C7EBCAE4C8EBD4C2B7DD28506C65617374
:103300006520536574204D6F6E746873293AB7B6A3
:10331000CEA75B317E31325DA3ACCAE4C8EBD7D611
:10332000B7FBBAF3C7EBBCD3BBD8B3B53A000000C8
:103330000D0A2020C7EBCAE4C8EBCAB1D6D3285087
:103340006C656173652053657420486F75727329CD
:103350002CB7B6CEA75B307E32335DA3ACCAE4C8CF
:10336000EBD7D6B7FBBAF3C7EBBCD3BBD8B3B53AF0
:10337000000000000D0A2020C7EBCAE4C8EBC4EA35
:10338000B7DD28506C6561736520536574205965FD
:10339000617273292CB7B6CEA75B313937307E32D4
:1033A0003033385DA3ACCAE4C8EBD7D6B7FBBAF369
:1033B000C7EBBCD3BBD8B3B53A0000000D0A202040
:1033C000C7EBCAE4C8EBC3EBD6D328506C65617376
:1033D0006520536574205365636F6E6473292CB741
:1033E000B6CEA75B307E35395DA3ACCAE4C8EBD757
:1033F000D6B7FBBAF3C7EBBCD3BBD8B3B53A000022
:103400000D0A2020C7EBCAE4C8EBB7D6D6D32850A4
:103410006C6561736520536574204D696E757465C4
:1034200073292CB7B6CEA75B307E35395DA3ACCA05
:10343000E4C8EBD7D6B7FBBAF3C7EBBCD3BBD8B362
:10344000B53A00000D0A2020C7EBCAE4C8EBC8D586
:10345000C6DA28506C6561736520536574204D6F22
:103460006E746873292CB7B6CEA75B317E25645D78
:10347000A3ACCAE4C8EBD7D6B7FBBAF3C7EBBCD34F
:10348000BBD8B3B53A000000BBA20000C5A3000042
:10349000BCA60000B9B70000D2BB0000CDC300003D
:1034A000CBC40000C8D50000C9DF0000CEE5000095
:1034B000C2ED0000D6ED0000BAEF0000D1F200002E
:1034C000CAF30000C1F90000C1FA0000C8FD000005
:1034D000B6FE0000F4340008000000200C010000DB
:1034E0002C300008003600080C0100200C040000FD
:1034F0003C30000800A24A04000000000000000068
:10350000010203040607080902040608000000007F
:103510000102030401020304060708090000000079
:10352000000000000000000000000000000000009B
:103530000100000001000000D007000000000000B2
:10354000000000000000000000000000000000007B
:10355000000000001B000000110000000800000037
:103560000B000000E6070000020000000000000061
:1035700000000000A434000898340008D03400088B
:10358000CC340008A0340008AC340008C43400086F
:10359000B4340008C03400088C34000888340008B3
:1035A0009C340008C8340008A8340008B03400086F
:1035B000BC340008B8340008903400089434000883
:1035C000000000001F0000001C0000001F000000A1
:1035D0001E0000001F0000001E0000001F00000071
:1035E0001F0000001E0000001F0000001E00000061
:1035F0001F000000000000000000000000000000AC
:0400000508000131BD
:00000001FF
